:020000040800F2
:10000000F0040020D5000008E912000805120008DD
:1000100000000000000000000000000000000000E0
:1000200000000000000000000000000005140008AF
:100030000000000000000000EB1200080714000898
:10004000E7000008E7000008E7000008E7000008F4
:10005000E7000008E7000008E7000008E7000008E4
:1000600000000000E7000008E7000008E7000008C3
:10007000E7000008E700000800000000E7000008B3
:1000800000000000E7000008000000000000000081
:10009000E700000800000000E7000008E700000893
:1000A000E7000008E7000008E7000008E700000894
:1000B000E7000008E7000008000000000000000062
:1000C0000348854600F08EF800480047891900086B
:1000D000F00400200448804704480047FEE7FEE79C
:1000E000FEE7FEE7FEE7FEE79D140008C1000008FA
:1000F00030B50B46014600202022012409E00D46C0
:10010000D5409D4205D31D469540491B2546954047
:1001100040191546521E002DF1DC30BDF0B51FB45C
:100120000646002082B005464024019100901BE065
:10013000019922460F46304600F042F8049A059B8A
:10014000801A994110D310461946224600F028F82B
:10015000361A8F410197224601200021009F00F0AE
:100160001FF838184D4100902046641E0028DFDC3F
:10017000019B00982946324607B0F0BDD2B201E09B
:100180000270401C491EFBD270470022F6E710B5F2
:1001900013460A4604461946FFF7F0FF204610BDF5
:1001A00010B5202A04DB0146203A9140002010BD02
:1001B000914020239C1A0346E3401943904010BD10
:1001C00010B5202A04DB0846203AD040002110BD9B
:1001D0000B46D340D0402024A21A91400843194630
:1001E00010BD0000064C0125064E05E0E36807CC73
:1001F0002B430C3C98471034B442F7D3FFF764FF0D
:10020000101A0008301A00083EB501210003C90386
:1002100008436946888005242407002210212046CF
:1002200000F0EAF80A200090012302AA01A904487C
:1002300000F068FE00221021204600F0DDF83EBDEF
:100240001400002038B5000308434004400C694600
:1002500008800524240700221021204600F0CCF855
:100260000A2301226946044800F09CFD0122102166
:10027000204600F0C1F838BD1400002072B6FEE739
:10028000FCB500230124A2E027462A469F403A40BD
:100290006FD04D68012D05D0022D03D0112D01D056
:1002A000122D16D185680326AC465D00AE46AE40E1
:1002B0006546B543AC46CE687546AE4065462E43AE
:1002C000866046680D79BE43ED06ED0F9D403543CF
:1002D0004560C6685F000325BD40AE46AE43354667
:1002E0008E68BE402E43C6604E68022E01D0122E8C
:1002F00014D1DE08B60036180196366A5D07B4469A
:10030000EE0E0F25B54000966646AE43B4460D6925
:10031000009EB54066462E43019D2E6206687546D6
:10032000AE430D79AD07AD0FBD40354305604D6857
:10033000ED004BD5294D6E6B26436E639E08284D0C
:10034000B6007519AC46AD689E07360F0F27B7404B
:10035000BD4305273F07B84201D1002715E0214FD3
:10036000B84201D1012710E01F4FB84202D1022745
:100370000BE02BE01D4FB84201D1032705E01C4FD5
:10038000B84201D1052700E00627B7402F43654654
:10039000AF60184D2E684F689643FF0300D5164393
:1003A0002E606E684F689643BF0300D516436E609B
:1003B000AE684F689643FF0200D51643AE60EE6804
:1003C0004F689643BF0200D51643EE605B1C0A6877
:1003D0001546DA4000D057E7FCBD0000001002408F
:1003E000000001400004005000080050000C0050C4
:1003F000001C005000040140002A01D081617047B8
:100400008162704701488068704700000400002046
:1004100002488168027889188160704704000020D2
:1004200010B50848002401684022114301602046AD
:1004300000F00AF8002801D0012401E000F026F8BD
:10044000204610BD0020024070B504460D4D7D20B1
:100450002978C000FFF74CFE01460B480068FFF703
:1004600047FE00F053FE002809D1042C07D20022D9
:100470002146401E00F016F800206C6070BD01207F
:1004800070BD000004000020100000200448416BF3
:10049000012211434163816B020411438163704760
:1004A0000010024010B501F005FA10BDF8B5044681
:1004B00000780027534D800671D5524E403EB06BF8
:1004C000C00004D4B06BA9050843B06301274E48AF
:1004D0000168C90511D40168821511430160FFF755
:1004E00091FF009005E0FFF78DFF0099401A642806
:1004F00037D845480068C005F5D53268032109059D
:1005000060680A400140914208D08103890F0329A5
:1005100004D13168890301D50120F8BD2A6903217E
:1005200009040A4022D0084090421FD0207880065B
:100530001CD528692A6988430121C9040A432A6114
:100540002A698A432A612861C0050FD5FFF75AFF3F
:10055000009008E0FFF756FF0099411A2B488142AE
:1005600001D90320F8BD28698005F3D561688803A7
:10057000800F032805D132680005824301400A43F9
:10058000326028690322616812041140084328611F
:10059000002F04D0B16B012000078143B1632078A4
:1005A000C00705D0E868A168800880000843E860BB
:1005B0002078800705D5E8680C218843E168084366
:1005C000E8602078400706D5E8680321890288435F
:1005D00021690843E8602078000706D5E868032110
:1005E0000903884361690843E8602078000606D55E
:1005F000E868032189048843A1690843E860002072
:10060000F8BD000040100240007000408813000058
:10061000F8B50E46050038D05E480068C007C00F28
:10062000B04214D25B4C2068400840003043206048
:10063000FFF7E8FE074605E0FFF7E4FEC11B56485A
:1006400081427AD82068C007C00FB042F4D1287820
:10065000524C800705D5E068F0218843A96808431B
:10066000E0602878C00752D06868022806D00328C6
:1006700007D0216801280AD0890504E02168890390
:1006800001E021688901002903DB0120F8BD490749
:10069000F9E7E168890889000143E160FFF7B2FEEC
:1006A0000746686802280AD0032814D001281ED003
:1006B00029E0FFF7A7FEC11B374881423DD8E0681B
:1006C0000007800F0228F4D121E0FFF79BFEC11B39
:1006D0003148814231D8E0680007800F0328F4D107
:1006E00015E0FFF78FFEC11B2B48814225D8E0683B
:1006F0000007800F0128F4D109E0FFF783FEC11B3A
:100700002548814219D8E0680007800FF5D12148BB
:100710000168C907C90FB14217D9016849084900E2
:1007200031430160FFF76EFE074608E005E0FFF782
:1007300069FEC11B1848814201D90320F8BD154844
:100740000068C007C00FB042F1D12878400706D535
:10075000E068072109028843E9680843E0602878D7
:10076000000707D5E0680721C90288432969C90045
:100770000843E06000F040F8E168094A0906090F03
:10078000515CC8400749086007480068FFF75CFEF5
:10079000F8BD000000200240881300000010024055
:1007A000EC19000810000020080000200148006833
:1007B0007047000010000020044805490068C9681F
:1007C000044A4905490F515CC84070471000002099
:1007D00000100240051A0008044805490068C9686D
:1007E000044A8904490F515CC8407047100000203A
:1007F00000100240051A000870B51A4AD3681A4959
:100800000C2018408D0004280CD04E00082810D071
:100810000C2810D050680004410F0120C003491C6F
:10082000884070BD1068C00601D5084670BD2846D6
:1008300070BD304670BD98020C4C000F205C1B024E
:100840009C0FD368641CDB0301D5314603E01268BA
:10085000D20600D4294601F008F822460023FFF70B
:100860005DFC70BD0010024000093D00FC1900084D
:10087000FEB505007ED0FE4CE7680C20E668074018
:100880000120000406402878C00747D0082F05D073
:100890000C2F0AD101200004864206D12068800373
:1008A0003CD568680028E5D038E00120696800047C
:1008B000814203D121680143216011E00523012217
:1008C0001B0492049942216802D111432160F1E78F
:1008D000814321602168014000912068904320609D
:1008E000686800280DD0FFF78DFD009005E0FFF748
:1008F00089FD0099401A64287BD820688003F6D5CA
:100900000CE0FFF77FFD009005E0FFF77BFD00990D
:10091000401A6428F0D820688003F6D4287880072D
:1009200056D50923E868042F0DD00C2F01D1002ED5
:1009300009D000283CD02168994301432160FFF78A
:1009400061FD064628E02168490701D5002891D0BD
:1009500061681F22120291432A69120211436160E9
:100960002168994301432160FFF746FFE1680906CA
:100970000A0F00E08BE1BF49895CC840BE490860AE
:10098000BE480068FFF760FD002873D120E0FFF744
:1009900039FD801B0228AFD820684007F7D5606872
:1009A0001F210902884329690902084360600FE09A
:1009B0002068400840002060FFF724FD064604E060
:1009C000FFF720FD801B022896D820684007F7D447
:1009D0002878C00660D5002F0CD0A86900284AD01E
:1009E0002068FF21013108432060FFF70BFD064618
:1009F0002EE0C1E02068800502D5A8690028A6D0B5
:100A00006068072149038843296A08436060606879
:100A1000297F0002000A090608436060286A410B2A
:100A20000120C003491C8840E16809060A0F91496A
:100A3000895CC8409049086090480068FFF704FD51
:100A4000002817D128E0FFF7DDFC801B0228A2D880
:100A500020688005F7D56068072149038843296A23
:100A6000084360606068297F0002000A09060843A5
:100A7000606011E0E2E02168FF20013081432160E5
:100A8000FFF7C0FC064604E0FFF7BCFC801B022811
:100A900072D820688005F7D42878794E000724D5CD
:100AA00068690028306910D0012108433061FFF7E0
:100AB000A9FC009005E0FFF7A5FC0099401A022868
:100AC0005AD830698007F6D50FE040084000306101
:100AD000FFF798FC009005E0FFF794FC0099401A9E
:100AE000022849D830698007F6D42878400766D5AF
:100AF00000200290A06BC00006D4A06B0121090762
:100B00000843A063012002905E480168C90511D422
:100B10000168821511430160FFF774FC009005E045
:100B2000FFF770FC0099401A642825D855480068E2
:100B3000C005F5D5FF20AA680130824203D1316992
:100B40000143316111E001218902002A07D0052308
:100B50001B029A4203D132690A433261EFE73269DC
:100B600082433261306988433061A868002810D020
:100B7000FFF748FC009008E05FE0FFF743FC014608
:100B80000098091A4048814257D830698005F4D549
:100B90000DE0FFF737FC009006E0FFF733FC00990B
:100BA000411A3948814248D830698005F5D4029805
:100BB000002804D0A06B012109078843A063686A5C
:100BC000002866D00C2F3ED0012636060228206869
:100BD00005D0B0432060FFF715FC05462FE0B04379
:100BE0002060FFF70FFC074604E0FFF70BFCC01B7B
:100BF000022822D820688001F7D4E96AA86AE2684E
:100C00000843296BFD231B049A4311430843E0600A
:100C1000206830432060FFF7F5FB054604E0FFF74E
:100C2000F1FB401B022808D820688001F7D530E08E
:100C3000FFF7E8FB401B022801D90320FEBD206816
:100C40008001F5D425E00128F8D0E06801210904ED
:100C5000AA6A014091421AD10F218904EA6A01402F
:100C6000914214D1032189050840296B88420DE087
:100C700000100240EC1900081000002008000020BD
:100C800040100240007000408813000001D0012095
:100C9000FEBD0020FEBDF8B504000ED0FF27606A3F
:100CA0000537002500280AD02561656126464036B3
:100CB000A562707C002807D00AE00120F8BD6068BA
:100CC000B842F3D0E561F1E73574204600F03EF814
:100CD000022171742068026840239A430260212334
:100CE000A26860689B021A4038401043E3688A0299
:100CF0001340184323690B40217D1843C907C90FCE
:100D00000843A169931019400843E1693823194049
:100D10000843216A802319400843A16A93001940BF
:100D2000084321680860A0690421000C0840616A3A
:100D3000102319400843216848602068C169914325
:100D4000C1616565012070740020F8BD10B586B0E2
:100D5000044614216846FFF718FA104920688842B3
:100D600019D10F48416B821411434163C16A0122BA
:100D70001143C162C06A002110400590E02000903C
:100D800002200190032003900291049105206946FE
:100D90000007FFF775FA06B010BD000000300140F3
:100DA00000100240FFB5054604464035287C002768
:100DB00081B01646012809D001202874FFF722FBD4
:100DC0000090687C012804D0022795E0022005B03D
:100DD000F0BD0298002872D0002E70D003206874F5
:100DE0000020606502992163A686E686A063A0873D
:100DF000E087606420640122A068D2034021904211
:100E000008D1206802688A430260206802680B02E9
:100E10001A43026020680268520602D402680A433C
:100E200002600120E168C0028142606826D100288A
:100E300001D0012E1ED1206B21680088C86006E019
:100E400020688168890709D5216B0988C160206BFA
:100E5000801C2063E08E401EE0860BE0FFF7D2FA94
:100E60000099411A0498814202D3401C02D039E013
:100E7000002837D0E08E0028E2D126E0002801D0FB
:100E8000012E1FD1206B21680078087306E02068CE
:100E90008168890709D5216B09780173206B401C93
:100EA0002063E08E401EE0860CE0FFF7ABFA00996D
:100EB000411A0498814203D3401C03D012E01AE087
:100EC00000280FD0E08E0028E1D12046009A049936
:100ED00000F00CFA002801D020206065A0680028EE
:100EE00002D005E0032707E02068C1688068009011
:100EF000606D002800D0012701206874002028744C
:100F0000384664E7FFB5044683B001200190002015
:100F1000264640360090307C0C9F1D4601280FD09D
:100F200001203074FFF76EFA0290707C616801282E
:100F30000DD0CA1FFD3A08D1A168002905D102E0F1
:100F4000022007B0F0BD042801D00220C3E00498BD
:100F5000002828D00598002825D0002D23D0707CAB
:100F6000042801D005207074002060650599A163F4
:100F7000E587A58704992163E586A58620646064DA
:100F800020680168490603D40168402211430160CA
:100F90000121E068C9028842606848D1002804D075
:100FA000012D02D03CE0012095E0206B21680088F3
:100FB000C860206B801C2063E08E401EE0862FE01E
:100FC00020688168890710D5E18E00290DD001992C
:100FD00001290AD1216B0988C160206B801C206324
:100FE000E08E401EE0860020019020688168C907DD
:100FF0000DD0E18F00290AD0C068A16B0880A06BDA
:10100000801CA063E08F401EE08701200190FFF765
:10101000F9F901460298081AB84201D3781C59D14F
:10102000E08E0028CCD1E08F0028C9D146E000280E
:1010300001D0012D3CD1206B216800780873206B12
:10104000401C2063E08E401EE08631E0206881680D
:10105000890710D5E18E00290DD0019901290AD107
:10106000216B09780173206B401C2063E08E401EC9
:10107000E0860020019020688168C9070DD0E18FCB
:1010800000290AD0C068A16B0870A06B401CA06347
:10109000E08F401EE08701200190FFF7B3F902992D
:1010A000401AB84202D3781C02D013E0002F11D0AE
:1010B000E08E0028CAD1E08F0028C7D139462046EB
:1010C000029A00F013F9002807D001200090202098
:1010D000606509E00320009006E0A068002803D1C5
:1010E0002068C1688068019001207074002030740D
:1010F000009826E7042204490428086902D0904396
:10110000086170471043FBE700E000E0094910B5B3
:10111000401E884201D9012010BD074C60610321A7
:10112000081F00F0C7FB0020A061072020610020FD
:1011300010BD0000FFFFFF0000E000E010B504005C
:1011400003D0A06F002802D007E0012010BD0021CD
:1011500074200155204600F027F82420A06720685D
:101160000168490849000160204600F02FFA012873
:10117000ECD0606A002802D0204600F090F9206888
:1011800041680922D20291434160206881682A2285
:10119000914381602068016801221143016020466B
:1011A00000F0E2F910BD000010B586B0044614212D
:1011B0006846FEF7EAFF1149206888421CD11048B2
:1011C000416B0122920311434163C16A0122114321
:1011D000C162C06A69461040059003204002009039
:1011E000022001900020029003200390042004902C
:1011F00005200007FFF744F806B010BD0038014095
:1012000000100240FEE7000030B587B014216846A8
:10121000FEF7BBFF1448C26A04210A43C262C26AD5
:101220000A400592C26A80210A43C262C26A0A4029
:101230000592C16A01242143C162C06A052520408C
:101240002D070590224610212846FFF7D5F81020DB
:101250000090032003900194029469462846FFF70A
:101260000FF807B030BD00000010024010B50F4865
:101270000D490160FF21053141600021012281609B
:10128000D2020161C2604161921082610162082252
:101290004162C26181620721C162FFF7FCFC002844
:1012A00001D0FEF7EBFF10BD00300140140000201C
:1012B00010B50C480A4901604B21C9014160002169
:1012C0008160C16001618161C1610C220162426182
:1012D0004162FFF733FF002801D0FEF7CFFF10BDBA
:1012E000003801406C000020FEE77047F8B5044666
:1012F00015480E46154613490068FEF7F9FE7D2194
:10130000C900484300906068C11FFD390ED13346C3
:10131000002280212046009500F018F800280FD008
:10132000606D2021084360650320F8BD0098002807
:1013300006D0401E009020688068C0430006F5D5A6
:101340000020F8BD00366E0110000020FFB581B00E
:101350001E4604460A9DFFF755F8401B351AFFF755
:1013600051F80746264800684001000D684339E0FF
:10137000701C38D0FFF746F8C01BA84205D2002DDC
:1013800003D0009800282BD02BE020684168E02291
:10139000914341606068C11FFD390CD10121A068F3
:1013A000C903884202D04911884204D120680168EB
:1013B0004022914301600120A16A4003814207D18C
:1013C00021680A6882430A6021680A6802430A6049
:1013D00001204034607400202074032005B0F0BD6B
:1013E0000025401E0090206881680298884305D03F
:1013F000002103988142BBD10020EFE70121F8E7EB
:1014000010000020704710B5FFF702F810BD000073
:1014100030B599B034216846FEF7B7FE14210DA807
:10142000FEF7B3FE1C2112A8FEF7AFFE1A480168B2
:101430000322D2029143C214891801600125500190
:10144000009501900A900320022180040B9048052A
:101450000C9009916846FFF70BFA002801D072B68C
:10146000FEE70F200D90002403200E900F9410949F
:10147000012111940DA8FFF7CBF8002801D072B616
:10148000FEE712A812951494FFF710F8002801D077
:1014900072B6FEE719B030BD00700040704710B55D
:1014A000818CC90707D001684A6801235B049A430D
:1014B000836A1A434A60818C890707D501684A68A4
:1014C00001231B049A43C36A1A434A60818C49076B
:1014D00007D501684A6801239B049A43036B1A43AA
:1014E0004A60818C090707D501684A680123DB033C
:1014F0009A43436B1A434A60818CC90607D5026838
:10150000916801231B039943836B19439160818C7C
:10151000890607D501688A6801235B039A43C36B78
:101520001A438A60818C490612D503685A680121E2
:101530000905046C8A4322435A60026C8A4207D12F
:101540000268516803235B059943436C194351605A
:10155000818C090607D501684A680123DB04806C89
:101560009A4302434A6010BDF8B504460026803015
:101570000660FEF747FF054620680068124F000727
:1015800009D501212B46002249052046009700F08D
:101590001DF900280DD12068006840070BD50121F6
:1015A0002B46002289052046009700F00FF90028FD
:1015B00001D00320F8BD2020A067E06726666034D4
:1015C00026750020F8BD0000FFFFFF01F8B50446B6
:1015D000016880682369E66918436369002533431D
:1015E0001843724A0B68724E334003430B60216804
:1015F000486803231B039843E36818434860216845
:10160000A069914201D0236A18438B680B263602E9
:10161000B34303438B606749236867488B420CD10F
:10162000C0688007800F06D0012839D0022835D045
:10163000032821D11EE001271FE060498B420AD117
:10164000C0680C21084027D0042829D0082825D0BC
:101650000C2811D10EE093420ED1C1680320800204
:10166000014019D001208002091A19D0091A15D099
:10167000814201D1082700E010274F4950484039E6
:101680008600934232D1002F0CD0022F0DD0042FB0
:1016900010D0082F7FD126E00027EEE70227ECE7E5
:1016A0000427EAE7FFF788F806E00968C90605D4C9
:1016B000304603E0FFF7A0F8002872D062685100BE
:1016C0005118814267D81103814264D3010E06028A
:1016D0005008002330185941FEF720FD032109026C
:1016E000411A384A55E00120C003E7E70122E369C7
:1016F000D20393422BD13B0000F0CFF80906090C2E
:101700004D114D4D4D274D00FFF756F809E0FFF7FD
:1017100063F806E00968C90605D4304603E0FFF720
:101720006BF800283DD0616840004A088018FEF739
:10173000DFFC80B20146244A103991422BD8511C5B
:1017400001400007400F084329E01046EBE73B004B
:1017500000F0A3F80906090C211221212123210000
:10176000FFF72AF80AE0FFF737F807E00968C9062B
:1017700006D4304604E00EE0FFF73EF8002810D013
:1017800061684A081018FEF7B3FC80B201460E4AA1
:101790001039914203D9012503E01046F0E7216892
:1017A000C86000206066A0662846F8BD004800407A
:1017B000F369FFEF00380140401002400044004050
:1017C00000093D00FFFC0F00EFFF0000FFB581B0F6
:1017D00005460F46044660350A9E39E0701C37D036
:1017E000FEF710FE0499401AB04222D8002E20D0F5
:1017F0002068016849072BD5C069C043000527D47C
:1018000001202168C002086220680168FF22A1321D
:101810009143016020688168490849008160202067
:10182000A067E0678034206000202875032005B0A1
:10183000F0BD20680168FF22A13291430160206859
:1018400081684908490081602020A067E067EBE7D4
:101850002068C1693846884305D000210398814239
:10186000BCD00020E3E70121F8E7F8B5040C8BB207
:10187000264682B25E430D0C1046370C58433604A0
:1018800080190021794116466E43370C36048019C1
:10189000794126466E438919F8BD30B47446641EFA
:1018A0002578641CAB4200D21D46635D5B00E318E3
:1018B00030BC18478307FF22DB0E9A408907090EC8
:1018C0009940002808DB830809489B001B1818680A
:1018D00090430843186070470007000F08388308DA
:1018E00004489B001B18D86990430843D86170478F
:1018F00000E400E000ED00E002E008C8121F08C1AB
:10190000002AFAD170477047002001E001C1121F80
:10191000002AFBD17047000010B50420FFF7EAFB56
:10192000FEF744FF0249FEF7E3FB0249086010BDE1
:1019300040420F000000002070B500247D260546BF
:10194000F60003E0304600F005F8641CAC42F9D321
:1019500070BD000070B50A4C002365690949A26991
:1019600009684843A1699142FCD0914201D2521AC0
:1019700001E06E1AB218D3180A468342F2D370BD42
:1019800000E000E000000020FEF74AFDFFF740FD08
:10199000FFF73AFCFFF76AFCFFF78AFCFFF7BCFF92
:1019A0003C210720FEF74EFC0F490520FEF74AFCBC
:1019B000FF24F5340120FEF727FC2046FFF7BCFF8B
:1019C0000220FEF721FC2046FFF7B6FF0320FEF7BA
:1019D0001BFC2046FFF7B0FF0420FEF715FC204655
:1019E000FFF7AAFFE6E70000FF010000000000008B
:1019F00000000000010203040607080903040608AA
:101A00000C10182030000000000102030400000048
:101A1000301A00080000002014000000F818000828
:101A2000441A000814000020DC0400000819000813
:101A300000000000010000000400000000000000A1
:041A40000000200082
:04000005080000C12E
:00000001FF
